{
  "contractName": "Autopool",
  "abi": [
    {
      "inputs": [],
      "payable": false,
      "stateMutability": "nonpayable",
      "type": "constructor"
    },
    {
      "constant": true,
      "inputs": [],
      "name": "allmemberCount",
      "outputs": [
        {
          "internalType": "uint256",
          "name": "",
          "type": "uint256"
        }
      ],
      "payable": false,
      "stateMutability": "view",
      "type": "function"
    },
    {
      "constant": true,
      "inputs": [
        {
          "internalType": "uint256",
          "name": "",
          "type": "uint256"
        }
      ],
      "name": "allmembers",
      "outputs": [
        {
          "internalType": "uint256",
          "name": "id",
          "type": "uint256"
        },
        {
          "internalType": "string",
          "name": "name",
          "type": "string"
        },
        {
          "internalType": "address payable",
          "name": "addr",
          "type": "address"
        },
        {
          "internalType": "uint256",
          "name": "direct_downliners",
          "type": "uint256"
        },
        {
          "internalType": "uint256",
          "name": "referrer_balance",
          "type": "uint256"
        }
      ],
      "payable": false,
      "stateMutability": "view",
      "type": "function"
    },
    {
      "constant": true,
      "inputs": [
        {
          "internalType": "address",
          "name": "",
          "type": "address"
        }
      ],
      "name": "box1_completed",
      "outputs": [
        {
          "internalType": "bool",
          "name": "",
          "type": "bool"
        }
      ],
      "payable": false,
      "stateMutability": "view",
      "type": "function"
    },
    {
      "constant": true,
      "inputs": [
        {
          "internalType": "address",
          "name": "",
          "type": "address"
        }
      ],
      "name": "box2_completed",
      "outputs": [
        {
          "internalType": "bool",
          "name": "",
          "type": "bool"
        }
      ],
      "payable": false,
      "stateMutability": "view",
      "type": "function"
    },
    {
      "constant": true,
      "inputs": [
        {
          "internalType": "uint256",
          "name": "",
          "type": "uint256"
        }
      ],
      "name": "box2_users",
      "outputs": [
        {
          "internalType": "uint256",
          "name": "id",
          "type": "uint256"
        },
        {
          "internalType": "address payable",
          "name": "addr",
          "type": "address"
        },
        {
          "internalType": "uint256",
          "name": "bal",
          "type": "uint256"
        },
        {
          "internalType": "uint256",
          "name": "paid",
          "type": "uint256"
        },
        {
          "internalType": "uint256",
          "name": "f_key",
          "type": "uint256"
        }
      ],
      "payable": false,
      "stateMutability": "view",
      "type": "function"
    },
    {
      "constant": true,
      "inputs": [
        {
          "internalType": "address",
          "name": "",
          "type": "address"
        }
      ],
      "name": "box3_completed",
      "outputs": [
        {
          "internalType": "bool",
          "name": "",
          "type": "bool"
        }
      ],
      "payable": false,
      "stateMutability": "view",
      "type": "function"
    },
    {
      "constant": true,
      "inputs": [
        {
          "internalType": "uint256",
          "name": "",
          "type": "uint256"
        }
      ],
      "name": "box3_users",
      "outputs": [
        {
          "internalType": "uint256",
          "name": "id",
          "type": "uint256"
        },
        {
          "internalType": "address payable",
          "name": "addr",
          "type": "address"
        },
        {
          "internalType": "uint256",
          "name": "bal",
          "type": "uint256"
        },
        {
          "internalType": "uint256",
          "name": "paid",
          "type": "uint256"
        },
        {
          "internalType": "uint256",
          "name": "f_key",
          "type": "uint256"
        }
      ],
      "payable": false,
      "stateMutability": "view",
      "type": "function"
    },
    {
      "constant": true,
      "inputs": [
        {
          "internalType": "address",
          "name": "",
          "type": "address"
        }
      ],
      "name": "box4_completed",
      "outputs": [
        {
          "internalType": "bool",
          "name": "",
          "type": "bool"
        }
      ],
      "payable": false,
      "stateMutability": "view",
      "type": "function"
    },
    {
      "constant": true,
      "inputs": [
        {
          "internalType": "uint256",
          "name": "",
          "type": "uint256"
        }
      ],
      "name": "box4_users",
      "outputs": [
        {
          "internalType": "uint256",
          "name": "id",
          "type": "uint256"
        },
        {
          "internalType": "address payable",
          "name": "addr",
          "type": "address"
        },
        {
          "internalType": "uint256",
          "name": "bal",
          "type": "uint256"
        },
        {
          "internalType": "uint256",
          "name": "paid",
          "type": "uint256"
        },
        {
          "internalType": "uint256",
          "name": "f_key",
          "type": "uint256"
        }
      ],
      "payable": false,
      "stateMutability": "view",
      "type": "function"
    },
    {
      "constant": true,
      "inputs": [
        {
          "internalType": "address",
          "name": "",
          "type": "address"
        }
      ],
      "name": "box5_completed",
      "outputs": [
        {
          "internalType": "bool",
          "name": "",
          "type": "bool"
        }
      ],
      "payable": false,
      "stateMutability": "view",
      "type": "function"
    },
    {
      "constant": true,
      "inputs": [
        {
          "internalType": "uint256",
          "name": "",
          "type": "uint256"
        }
      ],
      "name": "box5_users",
      "outputs": [
        {
          "internalType": "uint256",
          "name": "id",
          "type": "uint256"
        },
        {
          "internalType": "address payable",
          "name": "addr",
          "type": "address"
        },
        {
          "internalType": "uint256",
          "name": "bal",
          "type": "uint256"
        },
        {
          "internalType": "uint256",
          "name": "paid",
          "type": "uint256"
        },
        {
          "internalType": "uint256",
          "name": "f_key",
          "type": "uint256"
        }
      ],
      "payable": false,
      "stateMutability": "view",
      "type": "function"
    },
    {
      "constant": true,
      "inputs": [
        {
          "internalType": "address",
          "name": "",
          "type": "address"
        }
      ],
      "name": "box6_completed",
      "outputs": [
        {
          "internalType": "bool",
          "name": "",
          "type": "bool"
        }
      ],
      "payable": false,
      "stateMutability": "view",
      "type": "function"
    },
    {
      "constant": true,
      "inputs": [
        {
          "internalType": "uint256",
          "name": "",
          "type": "uint256"
        }
      ],
      "name": "box6_users",
      "outputs": [
        {
          "internalType": "uint256",
          "name": "id",
          "type": "uint256"
        },
        {
          "internalType": "address payable",
          "name": "addr",
          "type": "address"
        },
        {
          "internalType": "uint256",
          "name": "bal",
          "type": "uint256"
        },
        {
          "internalType": "uint256",
          "name": "paid",
          "type": "uint256"
        },
        {
          "internalType": "uint256",
          "name": "f_key",
          "type": "uint256"
        }
      ],
      "payable": false,
      "stateMutability": "view",
      "type": "function"
    },
    {
      "constant": true,
      "inputs": [
        {
          "internalType": "address",
          "name": "",
          "type": "address"
        }
      ],
      "name": "box7_completed",
      "outputs": [
        {
          "internalType": "bool",
          "name": "",
          "type": "bool"
        }
      ],
      "payable": false,
      "stateMutability": "view",
      "type": "function"
    },
    {
      "constant": true,
      "inputs": [
        {
          "internalType": "uint256",
          "name": "",
          "type": "uint256"
        }
      ],
      "name": "box7_users",
      "outputs": [
        {
          "internalType": "uint256",
          "name": "id",
          "type": "uint256"
        },
        {
          "internalType": "address payable",
          "name": "addr",
          "type": "address"
        },
        {
          "internalType": "uint256",
          "name": "bal",
          "type": "uint256"
        },
        {
          "internalType": "uint256",
          "name": "paid",
          "type": "uint256"
        },
        {
          "internalType": "uint256",
          "name": "f_key",
          "type": "uint256"
        }
      ],
      "payable": false,
      "stateMutability": "view",
      "type": "function"
    },
    {
      "constant": true,
      "inputs": [
        {
          "internalType": "uint256",
          "name": "",
          "type": "uint256"
        }
      ],
      "name": "boxUsers",
      "outputs": [
        {
          "internalType": "uint256",
          "name": "id",
          "type": "uint256"
        },
        {
          "internalType": "address payable",
          "name": "addr",
          "type": "address"
        },
        {
          "internalType": "uint256",
          "name": "bal",
          "type": "uint256"
        },
        {
          "internalType": "uint256",
          "name": "paid",
          "type": "uint256"
        },
        {
          "internalType": "uint256",
          "name": "f_key",
          "type": "uint256"
        }
      ],
      "payable": false,
      "stateMutability": "view",
      "type": "function"
    },
    {
      "constant": true,
      "inputs": [],
      "name": "idCount",
      "outputs": [
        {
          "internalType": "uint256",
          "name": "",
          "type": "uint256"
        }
      ],
      "payable": false,
      "stateMutability": "view",
      "type": "function"
    },
    {
      "constant": true,
      "inputs": [],
      "name": "idCount2",
      "outputs": [
        {
          "internalType": "uint256",
          "name": "",
          "type": "uint256"
        }
      ],
      "payable": false,
      "stateMutability": "view",
      "type": "function"
    },
    {
      "constant": true,
      "inputs": [],
      "name": "idCount3",
      "outputs": [
        {
          "internalType": "uint256",
          "name": "",
          "type": "uint256"
        }
      ],
      "payable": false,
      "stateMutability": "view",
      "type": "function"
    },
    {
      "constant": true,
      "inputs": [],
      "name": "idCount4",
      "outputs": [
        {
          "internalType": "uint256",
          "name": "",
          "type": "uint256"
        }
      ],
      "payable": false,
      "stateMutability": "view",
      "type": "function"
    },
    {
      "constant": true,
      "inputs": [],
      "name": "idCount5",
      "outputs": [
        {
          "internalType": "uint256",
          "name": "",
          "type": "uint256"
        }
      ],
      "payable": false,
      "stateMutability": "view",
      "type": "function"
    },
    {
      "constant": true,
      "inputs": [],
      "name": "idCount6",
      "outputs": [
        {
          "internalType": "uint256",
          "name": "",
          "type": "uint256"
        }
      ],
      "payable": false,
      "stateMutability": "view",
      "type": "function"
    },
    {
      "constant": true,
      "inputs": [],
      "name": "idCount7",
      "outputs": [
        {
          "internalType": "uint256",
          "name": "",
          "type": "uint256"
        }
      ],
      "payable": false,
      "stateMutability": "view",
      "type": "function"
    },
    {
      "constant": true,
      "inputs": [
        {
          "internalType": "uint256",
          "name": "",
          "type": "uint256"
        },
        {
          "internalType": "uint256",
          "name": "",
          "type": "uint256"
        }
      ],
      "name": "referred_person",
      "outputs": [
        {
          "internalType": "uint256",
          "name": "id",
          "type": "uint256"
        },
        {
          "internalType": "address payable",
          "name": "addr",
          "type": "address"
        }
      ],
      "payable": false,
      "stateMutability": "view",
      "type": "function"
    },
    {
      "constant": true,
      "inputs": [],
      "name": "vipId_box1",
      "outputs": [
        {
          "internalType": "uint256",
          "name": "",
          "type": "uint256"
        }
      ],
      "payable": false,
      "stateMutability": "view",
      "type": "function"
    },
    {
      "constant": true,
      "inputs": [],
      "name": "vipId_box2",
      "outputs": [
        {
          "internalType": "uint256",
          "name": "",
          "type": "uint256"
        }
      ],
      "payable": false,
      "stateMutability": "view",
      "type": "function"
    },
    {
      "constant": true,
      "inputs": [],
      "name": "vipId_box3",
      "outputs": [
        {
          "internalType": "uint256",
          "name": "",
          "type": "uint256"
        }
      ],
      "payable": false,
      "stateMutability": "view",
      "type": "function"
    },
    {
      "constant": true,
      "inputs": [],
      "name": "vipId_box4",
      "outputs": [
        {
          "internalType": "uint256",
          "name": "",
          "type": "uint256"
        }
      ],
      "payable": false,
      "stateMutability": "view",
      "type": "function"
    },
    {
      "constant": true,
      "inputs": [],
      "name": "vipId_box5",
      "outputs": [
        {
          "internalType": "uint256",
          "name": "",
          "type": "uint256"
        }
      ],
      "payable": false,
      "stateMutability": "view",
      "type": "function"
    },
    {
      "constant": true,
      "inputs": [],
      "name": "vipId_box6",
      "outputs": [
        {
          "internalType": "uint256",
          "name": "",
          "type": "uint256"
        }
      ],
      "payable": false,
      "stateMutability": "view",
      "type": "function"
    },
    {
      "constant": true,
      "inputs": [],
      "name": "vipId_box7",
      "outputs": [
        {
          "internalType": "uint256",
          "name": "",
          "type": "uint256"
        }
      ],
      "payable": false,
      "stateMutability": "view",
      "type": "function"
    },
    {
      "constant": false,
      "inputs": [],
      "name": "sellRef",
      "outputs": [],
      "payable": false,
      "stateMutability": "nonpayable",
      "type": "function"
    },
    {
      "constant": false,
      "inputs": [],
      "name": "sub",
      "outputs": [],
      "payable": false,
      "stateMutability": "nonpayable",
      "type": "function"
    },
    {
      "constant": false,
      "inputs": [
        {
          "internalType": "uint256",
          "name": "_referer",
          "type": "uint256"
        },
        {
          "internalType": "string",
          "name": "_name",
          "type": "string"
        }
      ],
      "name": "register",
      "outputs": [],
      "payable": true,
      "stateMutability": "payable",
      "type": "function"
    },
    {
      "constant": false,
      "inputs": [
        {
          "internalType": "uint256",
          "name": "_id",
          "type": "uint256"
        },
        {
          "internalType": "uint256",
          "name": "box",
          "type": "uint256"
        }
      ],
      "name": "custom_vip",
      "outputs": [],
      "payable": false,
      "stateMutability": "nonpayable",
      "type": "function"
    },
    {
      "constant": false,
      "inputs": [
        {
          "internalType": "uint256",
          "name": "_id",
          "type": "uint256"
        }
      ],
      "name": "vip_match",
      "outputs": [],
      "payable": false,
      "stateMutability": "nonpayable",
      "type": "function"
    },
    {
      "constant": false,
      "inputs": [
        {
          "internalType": "uint256",
          "name": "_id",
          "type": "uint256"
        }
      ],
      "name": "vip_match2",
      "outputs": [],
      "payable": false,
      "stateMutability": "nonpayable",
      "type": "function"
    },
    {
      "constant": false,
      "inputs": [
        {
          "internalType": "uint256",
          "name": "_id",
          "type": "uint256"
        }
      ],
      "name": "vip_match3",
      "outputs": [],
      "payable": false,
      "stateMutability": "nonpayable",
      "type": "function"
    },
    {
      "constant": false,
      "inputs": [
        {
          "internalType": "uint256",
          "name": "_id",
          "type": "uint256"
        }
      ],
      "name": "vip_match4",
      "outputs": [],
      "payable": false,
      "stateMutability": "nonpayable",
      "type": "function"
    },
    {
      "constant": false,
      "inputs": [],
      "name": "Box1_register",
      "outputs": [],
      "payable": true,
      "stateMutability": "payable",
      "type": "function"
    },
    {
      "constant": false,
      "inputs": [
        {
          "internalType": "address payable",
          "name": "_wallet",
          "type": "address"
        }
      ],
      "name": "Box2_register",
      "outputs": [],
      "payable": false,
      "stateMutability": "nonpayable",
      "type": "function"
    },
    {
      "constant": false,
      "inputs": [
        {
          "internalType": "address payable",
          "name": "_wallet",
          "type": "address"
        }
      ],
      "name": "Box3_register",
      "outputs": [],
      "payable": false,
      "stateMutability": "nonpayable",
      "type": "function"
    },
    {
      "constant": false,
      "inputs": [
        {
          "internalType": "address payable",
          "name": "_wallet",
          "type": "address"
        }
      ],
      "name": "Box4_register",
      "outputs": [],
      "payable": false,
      "stateMutability": "nonpayable",
      "type": "function"
    },
    {
      "constant": false,
      "inputs": [
        {
          "internalType": "address payable",
          "name": "_wallet",
          "type": "address"
        }
      ],
      "name": "Box5_register",
      "outputs": [],
      "payable": true,
      "stateMutability": "payable",
      "type": "function"
    },
    {
      "constant": false,
      "inputs": [
        {
          "internalType": "address payable",
          "name": "_wallet",
          "type": "address"
        }
      ],
      "name": "Box6_register",
      "outputs": [],
      "payable": true,
      "stateMutability": "payable",
      "type": "function"
    },
    {
      "constant": false,
      "inputs": [
        {
          "internalType": "address payable",
          "name": "_wallet",
          "type": "address"
        }
      ],
      "name": "Box7_register",
      "outputs": [],
      "payable": true,
      "stateMutability": "payable",
      "type": "function"
    },
    {
      "constant": true,
      "inputs": [],
      "name": "addressBal",
      "outputs": [
        {
          "internalType": "uint256",
          "name": "",
          "type": "uint256"
        }
      ],
      "payable": false,
      "stateMutability": "view",
      "type": "function"
    }
  ],
  "bytecode": "0x60806040523480156200001157600080fd5b506002600081548092919060010191905055506040518060a0016040528060025481526020016040518060400160405280600b81526020017f4e6174696f6e205769646500000000000000000000000000000000000000000081525081526020013373ffffffffffffffffffffffffffffffffffffffff168152602001600081526020016000815250600160006002548152602001908152602001600020600082015181600001556020820151816001019080519060200190620000d79291906200013c565b5060408201518160020160006101000a81548173ffffffffffffffffffffffffffffffffffffffff021916908373ffffffffffffffffffffffffffffffffffffffff1602179055506060820151816003015560808201518160040155905050620001eb565b828054600181600116156101000203166002900490600052602060002090601f016020900481019282601f106200017f57805160ff1916838001178555620001b0565b82800160010185558215620001b0579182015b82811115620001af57825182559160200191906001019062000192565b5b509050620001bf9190620001c3565b5090565b620001e891905b80821115620001e4576000816000905550600101620001ca565b5090565b90565b614c5c80620001fb6000396000f3fe6080604052600436106102885760003560e01c80637cf578311161015a578063a9996645116100c1578063dbff041c1161007a578063dbff041c14610f40578063de77dcb114610fcc578063e6e4623814610ff7578063f3da0f1914611022578063fd416c041461111e578063feab2ce81461114957610288565b8063a999664514610d6a578063c25626ad14610d95578063c335638e14610dfe578063c54124be14610e29578063ca1aa53614610e40578063d960840914610ed757610288565b806398f3a8291161011357806398f3a82914610a9e5780639ad2ea7014610b07578063a00fd3c814610b9e578063a482449014610c63578063a568c0a114610cfa578063a606c15514610d3f57610288565b80637cf578311461089b5780637d1ecce5146108c6578063836b66bb1461090a578063879bc32c1461094557806389ff5756146109dc57806398b458a514610a0757610288565b806348b2c698116101fe5780636e3d8f70116101b75780636e3d8f70146106635780636ebbc58b146106fa578063705584da1461079157806373389a46146107fa578063778acfe4146108355780637c47850b1461087057610288565b806348b2c6981461054c5780634f809861146105875780635080eec3146105b2578063647efa5d146105c957806367586be61461060d57806369f07dad1461063857610288565b80631adaa503116102505780631adaa503146103cd57806326d5e4591461041e5780632fec53dc1461048757806330852761146104b2578063318256c1146104dd578063419e4a0e1461050857610288565b80630691f72f1461028d578063080ecde214610297578063081d950e146102c257806312b58130146103135780631561ab7514610364575b600080fd5b6102956111b2565b005b3480156102a357600080fd5b506102ac6118fb565b6040518082815260200191505060405180910390f35b3480156102ce57600080fd5b50610311600480360360208110156102e557600080fd5b81019080803573ffffffffffffffffffffffffffffffffffffffff169060200190929190505050611901565b005b34801561031f57600080fd5b506103626004803603602081101561033657600080fd5b81019080803573ffffffffffffffffffffffffffffffffffffffff169060200190929190505050611ff5565b005b34801561037057600080fd5b506103b36004803603602081101561038757600080fd5b81019080803573ffffffffffffffffffffffffffffffffffffffff1690602001909291905050506126e9565b604051808215151515815260200191505060405180910390f35b3480156103d957600080fd5b5061041c600480360360208110156103f057600080fd5b81019080803573ffffffffffffffffffffffffffffffffffffffff169060200190929190505050612709565b005b34801561042a57600080fd5b5061046d6004803603602081101561044157600080fd5b81019080803573ffffffffffffffffffffffffffffffffffffffff169060200190929190505050612dfd565b604051808215151515815260200191505060405180910390f35b34801561049357600080fd5b5061049c612e1d565b6040518082815260200191505060405180910390f35b3480156104be57600080fd5b506104c7612e23565b6040518082815260200191505060405180910390f35b3480156104e957600080fd5b506104f2612e29565b6040518082815260200191505060405180910390f35b61054a6004803603602081101561051e57600080fd5b81019080803573ffffffffffffffffffffffffffffffffffffffff169060200190929190505050612e2f565b005b34801561055857600080fd5b506105856004803603602081101561056f57600080fd5b8101908080359060200190929190505050613284565b005b34801561059357600080fd5b5061059c613325565b6040518082815260200191505060405180910390f35b3480156105be57600080fd5b506105c761332b565b005b61060b600480360360208110156105df57600080fd5b81019080803573ffffffffffffffffffffffffffffffffffffffff1690602001909291905050506134e6565b005b34801561061957600080fd5b5061062261397a565b6040518082815260200191505060405180910390f35b34801561064457600080fd5b5061064d613982565b6040518082815260200191505060405180910390f35b34801561066f57600080fd5b5061069c6004803603602081101561068657600080fd5b8101908080359060200190929190505050613988565b604051808681526020018573ffffffffffffffffffffffffffffffffffffffff1673ffffffffffffffffffffffffffffffffffffffff1681526020018481526020018381526020018281526020019550505050505060405180910390f35b34801561070657600080fd5b506107336004803603602081101561071d57600080fd5b81019080803590602001909291905050506139de565b604051808681526020018573ffffffffffffffffffffffffffffffffffffffff1673ffffffffffffffffffffffffffffffffffffffff1681526020018481526020018381526020018281526020019550505050505060405180910390f35b34801561079d57600080fd5b506107e0600480360360208110156107b457600080fd5b81019080803573ffffffffffffffffffffffffffffffffffffffff169060200190929190505050613a34565b604051808215151515815260200191505060405180910390f35b34801561080657600080fd5b506108336004803603602081101561081d57600080fd5b8101908080359060200190929190505050613a54565b005b34801561084157600080fd5b5061086e6004803603602081101561085857600080fd5b8101908080359060200190929190505050613af5565b005b34801561087c57600080fd5b50610885613b96565b6040518082815260200191505060405180910390f35b3480156108a757600080fd5b506108b0613b9c565b6040518082815260200191505060405180910390f35b610908600480360360208110156108dc57600080fd5b81019080803573ffffffffffffffffffffffffffffffffffffffff169060200190929190505050613ba2565b005b34801561091657600080fd5b506109436004803603602081101561092d57600080fd5b8101908080359060200190929190505050614036565b005b34801561095157600080fd5b5061097e6004803603602081101561096857600080fd5b81019080803590602001909291905050506140d7565b604051808681526020018573ffffffffffffffffffffffffffffffffffffffff1673ffffffffffffffffffffffffffffffffffffffff1681526020018481526020018381526020018281526020019550505050505060405180910390f35b3480156109e857600080fd5b506109f161412d565b6040518082815260200191505060405180910390f35b348015610a1357600080fd5b50610a4060048036036020811015610a2a57600080fd5b8101908080359060200190929190505050614133565b604051808681526020018573ffffffffffffffffffffffffffffffffffffffff1673ffffffffffffffffffffffffffffffffffffffff1681526020018481526020018381526020018281526020019550505050505060405180910390f35b348015610aaa57600080fd5b50610aed60048036036020811015610ac157600080fd5b81019080803573ffffffffffffffffffffffffffffffffffffffff169060200190929190505050614189565b604051808215151515815260200191505060405180910390f35b348015610b1357600080fd5b50610b4060048036036020811015610b2a57600080fd5b81019080803590602001909291905050506141a9565b604051808681526020018573ffffffffffffffffffffffffffffffffffffffff1673ffffffffffffffffffffffffffffffffffffffff1681526020018481526020018381526020018281526020019550505050505060405180910390f35b610c6160048036036040811015610bb457600080fd5b810190808035906020019092919080359060200190640100000000811115610bdb57600080fd5b820183602082011115610bed57600080fd5b80359060200191846001830284011164010000000083111715610c0f57600080fd5b91908080601f016020809104026020016040519081016040528093929190818152602001838380828437600081840152601f19601f8201169050808301925050505050505091929192905050506141ff565b005b348015610c6f57600080fd5b50610c9c60048036036020811015610c8657600080fd5b8101908080359060200190929190505050614583565b604051808681526020018573ffffffffffffffffffffffffffffffffffffffff1673ffffffffffffffffffffffffffffffffffffffff1681526020018481526020018381526020018281526020019550505050505060405180910390f35b348015610d0657600080fd5b50610d3d60048036036040811015610d1d57600080fd5b8101908080359060200190929190803590602001909291905050506145d9565b005b348015610d4b57600080fd5b50610d54614638565b6040518082815260200191505060405180910390f35b348015610d7657600080fd5b50610d7f61463e565b6040518082815260200191505060405180910390f35b348015610da157600080fd5b50610de460048036036020811015610db857600080fd5b81019080803573ffffffffffffffffffffffffffffffffffffffff169060200190929190505050614644565b604051808215151515815260200191505060405180910390f35b348015610e0a57600080fd5b50610e13614664565b6040518082815260200191505060405180910390f35b348015610e3557600080fd5b50610e3e61466a565b005b348015610e4c57600080fd5b50610e7960048036036020811015610e6357600080fd5b81019080803590602001909291905050506148a2565b604051808681526020018573ffffffffffffffffffffffffffffffffffffffff1673ffffffffffffffffffffffffffffffffffffffff1681526020018481526020018381526020018281526020019550505050505060405180910390f35b348015610ee357600080fd5b50610f2660048036036020811015610efa57600080fd5b81019080803573ffffffffffffffffffffffffffffffffffffffff1690602001909291905050506148f8565b604051808215151515815260200191505060405180910390f35b348015610f4c57600080fd5b50610f8360048036036040811015610f6357600080fd5b810190808035906020019092919080359060200190929190505050614918565b604051808381526020018273ffffffffffffffffffffffffffffffffffffffff1673ffffffffffffffffffffffffffffffffffffffff1681526020019250505060405180910390f35b348015610fd857600080fd5b50610fe1614969565b6040518082815260200191505060405180910390f35b34801561100357600080fd5b5061100c61496f565b6040518082815260200191505060405180910390f35b34801561102e57600080fd5b5061105b6004803603602081101561104557600080fd5b8101908080359060200190929190505050614975565b60405180868152602001806020018573ffffffffffffffffffffffffffffffffffffffff1673ffffffffffffffffffffffffffffffffffffffff168152602001848152602001838152602001828103825286818151815260200191508051906020019080838360005b838110156110df5780820151818401526020810190506110c4565b50505050905090810190601f16801561110c5780820380516001836020036101000a031916815260200191505b50965050505050505060405180910390f35b34801561112a57600080fd5b50611133614a63565b6040518082815260200191505060405180910390f35b34801561115557600080fd5b506111986004803603602081101561116c57600080fd5b81019080803573ffffffffffffffffffffffffffffffffffffffff169060200190929190505050614a69565b604051808215151515815260200191505060405180910390f35b60006701cdda4faccd00009050803414611217576040517f08c379a000000000000000000000000000000000000000000000000000000000815260040180806020018281038252602c815260200180614b53602c913960400191505060405180910390fd5b60001515600560003373ffffffffffffffffffffffffffffffffffffffff1673ffffffffffffffffffffffffffffffffffffffff16815260200190815260200160002060009054906101000a900460ff161515146112c0576040517f08c379a0000000000000000000000000000000000000000000000000000000008152600401808060200182810382526028815260200180614b7f6028913960400191505060405180910390fd5b60046000815480929190600101919050555060008090505b60025481116118f7573373ffffffffffffffffffffffffffffffffffffffff166001600083815260200190815260200160002060020160009054906101000a900473ffffffffffffffffffffffffffffffffffffffff1673ffffffffffffffffffffffffffffffffffffffff1614156118ea576040518060a0016040528060045481526020013373ffffffffffffffffffffffffffffffffffffffff1681526020016000815260200160008152602001828152506003600060045481526020019081526020016000206000820151816000015560208201518160010160006101000a81548173ffffffffffffffffffffffffffffffffffffffff021916908373ffffffffffffffffffffffffffffffffffffffff160217905550604082015181600201556060820151816003015560808201518160040155905050600060185411156116715760026003600060185481526020019081526020016000206003015414156114c557600060036000601854815260200190815260200160002060010160009054906101000a900473ffffffffffffffffffffffffffffffffffffffff1690508073ffffffffffffffffffffffffffffffffffffffff166108fc849081150290604051600060405180830381858888f193505050501580156114c2573d6000803e3d6000fd5b50505b3460036000601854815260200190815260200160002060020160008282540192505081905550600360006018548152602001908152602001600020600301600081548092919060010191905055506003806000601854815260200190815260200160002060030154141561166c5761157460036000601854815260200190815260200160002060010160009054906101000a900473ffffffffffffffffffffffffffffffffffffffff16612709565b60016005600060036000601854815260200190815260200160002060010160009054906101000a900473ffffffffffffffffffffffffffffffffffffffff1673ffffffffffffffffffffffffffffffffffffffff1673ffffffffffffffffffffffffffffffffffffffff16815260200190815260200160002060006101000a81548160ff0219169083151502179055506003600060185481526020019081526020016000206000808201600090556001820160006101000a81549073ffffffffffffffffffffffffffffffffffffffff0219169055600282016000905560038201600090556004820160009055505060006018819055505b6118e9565b60008090505b60045481116118e7576000600360008381526020019081526020016000206000015411156118da5760006003600083815260200190815260200160002060010160009054906101000a900473ffffffffffffffffffffffffffffffffffffffff169050600260036000848152602001908152602001600020600301541415611741578073ffffffffffffffffffffffffffffffffffffffff166108fc859081150290604051600060405180830381858888f1935050505015801561173f573d6000803e3d6000fd5b505b346003600084815260200190815260200160002060020160008282540192505081905550600360008381526020019081526020016000206003016000815480929190600101919050555060038060008481526020019081526020016000206003015414156118d4576117e86003600084815260200190815260200160002060010160009054906101000a900473ffffffffffffffffffffffffffffffffffffffff16612709565b6001600560006003600086815260200190815260200160002060010160009054906101000a900473ffffffffffffffffffffffffffffffffffffffff1673ffffffffffffffffffffffffffffffffffffffff1673ffffffffffffffffffffffffffffffffffffffff16815260200190815260200160002060006101000a81548160ff021916908315150217905550600360008381526020019081526020016000206000808201600090556001820160006101000a81549073ffffffffffffffffffffffffffffffffffffffff021916905560028201600090556003820160009055600482016000905550505b506118e7565b8080600101915050611677565b505b5b80806001019150506112d8565b5050565b601c5481565b6000670737693eb3340000905060001515600760008473ffffffffffffffffffffffffffffffffffffffff1673ffffffffffffffffffffffffffffffffffffffff16815260200190815260200160002060009054906101000a900460ff161515146119b7576040517f08c379a0000000000000000000000000000000000000000000000000000000008152600401808060200182810382526028815260200180614b7f6028913960400191505060405180910390fd5b600f6000815480929190600101919050555060008090505b6002548111611ff0578273ffffffffffffffffffffffffffffffffffffffff166001600083815260200190815260200160002060020160009054906101000a900473ffffffffffffffffffffffffffffffffffffffff1673ffffffffffffffffffffffffffffffffffffffff161415611fe3576040518060a00160405280600f5481526020018473ffffffffffffffffffffffffffffffffffffffff168152602001600081526020016000815260200182815250600e6000600f5481526020019081526020016000206000820151816000015560208201518160010160006101000a81548173ffffffffffffffffffffffffffffffffffffffff021916908373ffffffffffffffffffffffffffffffffffffffff1602179055506040820151816002015560608201518160030155608082015181600401559050506000601a541115611d69576002600e6000601a548152602001908152602001600020600301541415611bbc576000600e6000601a54815260200190815260200160002060010160009054906101000a900473ffffffffffffffffffffffffffffffffffffffff1690508073ffffffffffffffffffffffffffffffffffffffff166108fc849081150290604051600060405180830381858888f19350505050158015611bb9573d6000803e3d6000fd5b50505b81600e6000601a54815260200190815260200160002060020160008282540192505081905550600e6000601a548152602001908152602001600020600301600081548092919060010191905055506003600e6000601a548152602001908152602001600020600301541415611d6457611c6c600e6000601a54815260200190815260200160002060010160009054906101000a900473ffffffffffffffffffffffffffffffffffffffff16611ff5565b600160076000600e6000601a54815260200190815260200160002060010160009054906101000a900473ffffffffffffffffffffffffffffffffffffffff1673ffffffffffffffffffffffffffffffffffffffff1673ffffffffffffffffffffffffffffffffffffffff16815260200190815260200160002060006101000a81548160ff021916908315150217905550600e6000601a5481526020019081526020016000206000808201600090556001820160006101000a81549073ffffffffffffffffffffffffffffffffffffffff021916905560028201600090556003820160009055600482016000905550506000601a819055505b611fe2565b60008090505b600f548111611fe0576000600e6000838152602001908152602001600020600001541115611fd3576000600e600083815260200190815260200160002060010160009054906101000a900473ffffffffffffffffffffffffffffffffffffffff1690506002600e6000848152602001908152602001600020600301541415611e39578073ffffffffffffffffffffffffffffffffffffffff166108fc859081150290604051600060405180830381858888f19350505050158015611e37573d6000803e3d6000fd5b505b83600e600084815260200190815260200160002060020160008282540192505081905550600e6000838152602001908152602001600020600301600081548092919060010191905055506003600e6000848152602001908152602001600020600301541415611fcd57611ee1600e600084815260200190815260200160002060010160009054906101000a900473ffffffffffffffffffffffffffffffffffffffff16611ff5565b600160076000600e600086815260200190815260200160002060010160009054906101000a900473ffffffffffffffffffffffffffffffffffffffff1673ffffffffffffffffffffffffffffffffffffffff1673ffffffffffffffffffffffffffffffffffffffff16815260200190815260200160002060006101000a81548160ff021916908315150217905550600e60008381526020019081526020016000206000808201600090556001820160006101000a81549073ffffffffffffffffffffffffffffffffffffffff021916905560028201600090556003820160009055600482016000905550505b50611fe0565b8080600101915050611d6f565b505b5b80806001019150506119cf565b505050565b6000670e6ed27d66680000905060001515600860008473ffffffffffffffffffffffffffffffffffffffff1673ffffffffffffffffffffffffffffffffffffffff16815260200190815260200160002060009054906101000a900460ff161515146120ab576040517f08c379a0000000000000000000000000000000000000000000000000000000008152600401808060200182810382526028815260200180614b7f6028913960400191505060405180910390fd5b60116000815480929190600101919050555060008090505b60025481116126e4578273ffffffffffffffffffffffffffffffffffffffff166001600083815260200190815260200160002060020160009054906101000a900473ffffffffffffffffffffffffffffffffffffffff1673ffffffffffffffffffffffffffffffffffffffff1614156126d7576040518060a0016040528060115481526020018473ffffffffffffffffffffffffffffffffffffffff1681526020016000815260200160008152602001828152506010600060115481526020019081526020016000206000820151816000015560208201518160010160006101000a81548173ffffffffffffffffffffffffffffffffffffffff021916908373ffffffffffffffffffffffffffffffffffffffff1602179055506040820151816002015560608201518160030155608082015181600401559050506000601b54111561245d57600260106000601b5481526020019081526020016000206003015414156122b057600060106000601b54815260200190815260200160002060010160009054906101000a900473ffffffffffffffffffffffffffffffffffffffff1690508073ffffffffffffffffffffffffffffffffffffffff166108fc849081150290604051600060405180830381858888f193505050501580156122ad573d6000803e3d6000fd5b50505b8160106000601b5481526020019081526020016000206002016000828254019250508190555060106000601b54815260200190815260200160002060030160008154809291906001019190505550600360106000601b5481526020019081526020016000206003015414156124585761236060106000601b54815260200190815260200160002060010160009054906101000a900473ffffffffffffffffffffffffffffffffffffffff166134e6565b60016008600060106000601b54815260200190815260200160002060010160009054906101000a900473ffffffffffffffffffffffffffffffffffffffff1673ffffffffffffffffffffffffffffffffffffffff1673ffffffffffffffffffffffffffffffffffffffff16815260200190815260200160002060006101000a81548160ff02191690831515021790555060106000601b5481526020019081526020016000206000808201600090556001820160006101000a81549073ffffffffffffffffffffffffffffffffffffffff021916905560028201600090556003820160009055600482016000905550506000601b819055505b6126d6565b60008090505b60115481116126d4576000601060008381526020019081526020016000206000015411156126c75760006010600083815260200190815260200160002060010160009054906101000a900473ffffffffffffffffffffffffffffffffffffffff16905060026010600084815260200190815260200160002060030154141561252d578073ffffffffffffffffffffffffffffffffffffffff166108fc859081150290604051600060405180830381858888f1935050505015801561252b573d6000803e3d6000fd5b505b83601060008481526020019081526020016000206002016000828254019250508190555060106000838152602001908152602001600020600301600081548092919060010191905055506003601060008481526020019081526020016000206003015414156126c1576125d56010600084815260200190815260200160002060010160009054906101000a900473ffffffffffffffffffffffffffffffffffffffff166134e6565b6001600860006010600086815260200190815260200160002060010160009054906101000a900473ffffffffffffffffffffffffffffffffffffffff1673ffffffffffffffffffffffffffffffffffffffff1673ffffffffffffffffffffffffffffffffffffffff16815260200190815260200160002060006101000a81548160ff021916908315150217905550601060008381526020019081526020016000206000808201600090556001820160006101000a81549073ffffffffffffffffffffffffffffffffffffffff021916905560028201600090556003820160009055600482016000905550505b506126d4565b8080600101915050612463565b505b5b80806001019150506120c3565b505050565b60086020528060005260406000206000915054906101000a900460ff1681565b600067039bb49f599a0000905060001515600660008473ffffffffffffffffffffffffffffffffffffffff1673ffffffffffffffffffffffffffffffffffffffff16815260200190815260200160002060009054906101000a900460ff161515146127bf576040517f08c379a0000000000000000000000000000000000000000000000000000000008152600401808060200182810382526028815260200180614b7f6028913960400191505060405180910390fd5b600d6000815480929190600101919050555060008090505b6002548111612df8578273ffffffffffffffffffffffffffffffffffffffff166001600083815260200190815260200160002060020160009054906101000a900473ffffffffffffffffffffffffffffffffffffffff1673ffffffffffffffffffffffffffffffffffffffff161415612deb576040518060a00160405280600d5481526020018473ffffffffffffffffffffffffffffffffffffffff168152602001600081526020016000815260200182815250600c6000600d5481526020019081526020016000206000820151816000015560208201518160010160006101000a81548173ffffffffffffffffffffffffffffffffffffffff021916908373ffffffffffffffffffffffffffffffffffffffff16021790555060408201518160020155606082015181600301556080820151816004015590505060006019541115612b71576002600c600060195481526020019081526020016000206003015414156129c4576000600c6000601954815260200190815260200160002060010160009054906101000a900473ffffffffffffffffffffffffffffffffffffffff1690508073ffffffffffffffffffffffffffffffffffffffff166108fc849081150290604051600060405180830381858888f193505050501580156129c1573d6000803e3d6000fd5b50505b81600c6000601954815260200190815260200160002060020160008282540192505081905550600c60006019548152602001908152602001600020600301600081548092919060010191905055506003600c60006019548152602001908152602001600020600301541415612b6c57612a74600c6000601954815260200190815260200160002060010160009054906101000a900473ffffffffffffffffffffffffffffffffffffffff16611901565b600160066000600c6000601954815260200190815260200160002060010160009054906101000a900473ffffffffffffffffffffffffffffffffffffffff1673ffffffffffffffffffffffffffffffffffffffff1673ffffffffffffffffffffffffffffffffffffffff16815260200190815260200160002060006101000a81548160ff021916908315150217905550600c600060195481526020019081526020016000206000808201600090556001820160006101000a81549073ffffffffffffffffffffffffffffffffffffffff0219169055600282016000905560038201600090556004820160009055505060006019819055505b612dea565b60008090505b600d548111612de8576000600c6000838152602001908152602001600020600001541115612ddb576000600c600083815260200190815260200160002060010160009054906101000a900473ffffffffffffffffffffffffffffffffffffffff1690506002600c6000848152602001908152602001600020600301541415612c41578073ffffffffffffffffffffffffffffffffffffffff166108fc859081150290604051600060405180830381858888f19350505050158015612c3f573d6000803e3d6000fd5b505b83600c600084815260200190815260200160002060020160008282540192505081905550600c6000838152602001908152602001600020600301600081548092919060010191905055506003600c6000848152602001908152602001600020600301541415612dd557612ce9600c600084815260200190815260200160002060010160009054906101000a900473ffffffffffffffffffffffffffffffffffffffff16611901565b600160066000600c600086815260200190815260200160002060010160009054906101000a900473ffffffffffffffffffffffffffffffffffffffff1673ffffffffffffffffffffffffffffffffffffffff1673ffffffffffffffffffffffffffffffffffffffff16815260200190815260200160002060006101000a81548160ff021916908315150217905550600c60008381526020019081526020016000206000808201600090556001820160006101000a81549073ffffffffffffffffffffffffffffffffffffffff021916905560028201600090556003820160009055600482016000905550505b50612de8565b8080600101915050612b77565b505b5b80806001019150506127d7565b505050565b60076020528060005260406000206000915054906101000a900460ff1681565b601a5481565b600f5481565b60025481565b600067737693eb33400000905060001515600b60008473ffffffffffffffffffffffffffffffffffffffff1673ffffffffffffffffffffffffffffffffffffffff16815260200190815260200160002060009054906101000a900460ff16151514612ee5576040517f08c379a0000000000000000000000000000000000000000000000000000000008152600401808060200182810382526028815260200180614b7f6028913960400191505060405180910390fd5b60176000815480929190600101919050555060008090505b600254811161327f578273ffffffffffffffffffffffffffffffffffffffff166001600083815260200190815260200160002060020160009054906101000a900473ffffffffffffffffffffffffffffffffffffffff1673ffffffffffffffffffffffffffffffffffffffff161415613272576040518060a0016040528060175481526020018473ffffffffffffffffffffffffffffffffffffffff1681526020016000815260200160008152602001828152506016600060175481526020019081526020016000206000820151816000015560208201518160010160006101000a81548173ffffffffffffffffffffffffffffffffffffffff021916908373ffffffffffffffffffffffffffffffffffffffff16021790555060408201518160020155606082015181600301556080820151816004015590505060008090505b6017548111613270576000601660008381526020019081526020016000206000015411156132635760006016600083815260200190815260200160002060010160009054906101000a900473ffffffffffffffffffffffffffffffffffffffff169050600260166000848152602001908152602001600020600301541415613108578073ffffffffffffffffffffffffffffffffffffffff166108fc859081150290604051600060405180830381858888f19350505050158015613106573d6000803e3d6000fd5b505b836016600084815260200190815260200160002060020160008282540192505081905550601660008381526020019081526020016000206003016000815480929190600101919050555060036016600084815260200190815260200160002060030154141561325d576001600b60006016600086815260200190815260200160002060010160009054906101000a900473ffffffffffffffffffffffffffffffffffffffff1673ffffffffffffffffffffffffffffffffffffffff1673ffffffffffffffffffffffffffffffffffffffff16815260200190815260200160002060006101000a81548160ff021916908315150217905550601660008381526020019081526020016000206000808201600090556001820160006101000a81549073ffffffffffffffffffffffffffffffffffffffff021916905560028201600090556003820160009055600482016000905550505b50613270565b808060010191505061303e565b505b8080600101915050612efd565b505050565b6000601954146132df576040517f08c379a0000000000000000000000000000000000000000000000000000000008152600401808060200182810382526029815260200180614ba76029913960400191505060405180910390fd5b60008090505b600d5481116133215781600c600083815260200190815260200160002060040154141561331457816019819055505b80806001019150506132e5565b5050565b60195481565b60008090505b60025481116134e3573373ffffffffffffffffffffffffffffffffffffffff166001600083815260200190815260200160002060020160009054906101000a900473ffffffffffffffffffffffffffffffffffffffff1673ffffffffffffffffffffffffffffffffffffffff1614156134d65760006001600083815260200190815260200160002060040154905060008111613418576040517f08c379a0000000000000000000000000000000000000000000000000000000008152600401808060200182810382526024815260200180614b2f6024913960400191505060405180910390fd5b80471015613471576040517f08c379a0000000000000000000000000000000000000000000000000000000008152600401808060200182810382526028815260200180614bd06028913960400191505060405180910390fd5b3373ffffffffffffffffffffffffffffffffffffffff166108fc829081150290604051600060405180830381858888f193505050501580156134b7573d6000803e3d6000fd5b5060006001600084815260200190815260200160002060040181905550505b8080600101915050613331565b50565b6000671cdda4faccd00000905060001515600960008473ffffffffffffffffffffffffffffffffffffffff1673ffffffffffffffffffffffffffffffffffffffff16815260200190815260200160002060009054906101000a900460ff1615151461359c576040517f08c379a0000000000000000000000000000000000000000000000000000000008152600401808060200182810382526028815260200180614b7f6028913960400191505060405180910390fd5b60136000815480929190600101919050555060008090505b6002548111613975578273ffffffffffffffffffffffffffffffffffffffff166001600083815260200190815260200160002060020160009054906101000a900473ffffffffffffffffffffffffffffffffffffffff1673ffffffffffffffffffffffffffffffffffffffff161415613968576040518060a0016040528060135481526020018473ffffffffffffffffffffffffffffffffffffffff1681526020016000815260200160008152602001828152506012600060135481526020019081526020016000206000820151816000015560208201518160010160006101000a81548173ffffffffffffffffffffffffffffffffffffffff021916908373ffffffffffffffffffffffffffffffffffffffff16021790555060408201518160020155606082015181600301556080820151816004015590505060008090505b6013548111613966576000601260008381526020019081526020016000206000015411156139595760006012600083815260200190815260200160002060010160009054906101000a900473ffffffffffffffffffffffffffffffffffffffff1690506002601260008481526020019081526020016000206003015414156137bf578073ffffffffffffffffffffffffffffffffffffffff166108fc859081150290604051600060405180830381858888f193505050501580156137bd573d6000803e3d6000fd5b505b8360126000848152602001908152602001600020600201600082825401925050819055506012600083815260200190815260200160002060030160008154809291906001019190505550600360126000848152602001908152602001600020600301541415613953576138676012600084815260200190815260200160002060010160009054906101000a900473ffffffffffffffffffffffffffffffffffffffff16613ba2565b6001600960006012600086815260200190815260200160002060010160009054906101000a900473ffffffffffffffffffffffffffffffffffffffff1673ffffffffffffffffffffffffffffffffffffffff1673ffffffffffffffffffffffffffffffffffffffff16815260200190815260200160002060006101000a81548160ff021916908315150217905550601260008381526020019081526020016000206000808201600090556001820160006101000a81549073ffffffffffffffffffffffffffffffffffffffff021916905560028201600090556003820160009055600482016000905550505b50613966565b80806001019150506136f5565b505b80806001019150506135b4565b505050565b600047905090565b60135481565b600e6020528060005260406000206000915090508060000154908060010160009054906101000a900473ffffffffffffffffffffffffffffffffffffffff16908060020154908060030154908060040154905085565b60166020528060005260406000206000915090508060000154908060010160009054906101000a900473ffffffffffffffffffffffffffffffffffffffff16908060020154908060030154908060040154905085565b600a6020528060005260406000206000915054906101000a900460ff1681565b6000601b5414613aaf576040517f08c379a0000000000000000000000000000000000000000000000000000000008152600401808060200182810382526029815260200180614ba76029913960400191505060405180910390fd5b60008090505b6011548111613af1578160106000838152602001908152602001600020600401541415613ae45781601b819055505b8080600101915050613ab5565b5050565b6000601a5414613b50576040517f08c379a0000000000000000000000000000000000000000000000000000000008152600401808060200182810382526029815260200180614ba76029913960400191505060405180910390fd5b60008090505b600f548111613b925781600e6000838152602001908152602001600020600401541415613b855781601a819055505b8080600101915050613b56565b5050565b60175481565b600d5481565b60006739bb49f599a00000905060001515600a60008473ffffffffffffffffffffffffffffffffffffffff1673ffffffffffffffffffffffffffffffffffffffff16815260200190815260200160002060009054906101000a900460ff16151514613c58576040517f08c379a0000000000000000000000000000000000000000000000000000000008152600401808060200182810382526028815260200180614b7f6028913960400191505060405180910390fd5b60156000815480929190600101919050555060008090505b6002548111614031578273ffffffffffffffffffffffffffffffffffffffff166001600083815260200190815260200160002060020160009054906101000a900473ffffffffffffffffffffffffffffffffffffffff1673ffffffffffffffffffffffffffffffffffffffff161415614024576040518060a0016040528060155481526020018473ffffffffffffffffffffffffffffffffffffffff1681526020016000815260200160008152602001828152506014600060155481526020019081526020016000206000820151816000015560208201518160010160006101000a81548173ffffffffffffffffffffffffffffffffffffffff021916908373ffffffffffffffffffffffffffffffffffffffff16021790555060408201518160020155606082015181600301556080820151816004015590505060008090505b6015548111614022576000601460008381526020019081526020016000206000015411156140155760006014600083815260200190815260200160002060010160009054906101000a900473ffffffffffffffffffffffffffffffffffffffff169050600260146000848152602001908152602001600020600301541415613e7b578073ffffffffffffffffffffffffffffffffffffffff166108fc859081150290604051600060405180830381858888f19350505050158015613e79573d6000803e3d6000fd5b505b836014600084815260200190815260200160002060020160008282540192505081905550601460008381526020019081526020016000206003016000815480929190600101919050555060036014600084815260200190815260200160002060030154141561400f57613f236014600084815260200190815260200160002060010160009054906101000a900473ffffffffffffffffffffffffffffffffffffffff16612e2f565b6001600a60006014600086815260200190815260200160002060010160009054906101000a900473ffffffffffffffffffffffffffffffffffffffff1673ffffffffffffffffffffffffffffffffffffffff1673ffffffffffffffffffffffffffffffffffffffff16815260200190815260200160002060006101000a81548160ff021916908315150217905550601460008381526020019081526020016000206000808201600090556001820160006101000a81549073ffffffffffffffffffffffffffffffffffffffff021916905560028201600090556003820160009055600482016000905550505b50614022565b8080600101915050613db1565b505b8080600101915050613c70565b505050565b600060185414614091576040517f08c379a0000000000000000000000000000000000000000000000000000000008152600401808060200182810382526029815260200180614ba76029913960400191505060405180910390fd5b60008090505b60045481116140d35781600360008381526020019081526020016000206004015414156140c657816018819055505b8080600101915050614097565b5050565b60146020528060005260406000206000915090508060000154908060010160009054906101000a900473ffffffffffffffffffffffffffffffffffffffff16908060020154908060030154908060040154905085565b601e5481565b60126020528060005260406000206000915090508060000154908060010160009054906101000a900473ffffffffffffffffffffffffffffffffffffffff16908060020154908060030154908060040154905085565b60096020528060005260406000206000915054906101000a900460ff1681565b600c6020528060005260406000206000915090508060000154908060010160009054906101000a900473ffffffffffffffffffffffffffffffffffffffff16908060020154908060030154908060040154905085565b600066b1a2bc2ec500009050803414614263576040517f08c379a000000000000000000000000000000000000000000000000000000000815260040180806020018281038252602c815260200180614b53602c913960400191505060405180910390fd5b60008090505b6002548111614357573373ffffffffffffffffffffffffffffffffffffffff166001600083815260200190815260200160002060020160009054906101000a900473ffffffffffffffffffffffffffffffffffffffff1673ffffffffffffffffffffffffffffffffffffffff16141561434a576040517f08c379a000000000000000000000000000000000000000000000000000000000815260040180806020018281038252601a8152602001807f596f752061726520616c7265616479207265676973746572656400000000000081525060200191505060405180910390fd5b8080600101915050614269565b506002600081548092919060010191905055506040518060a0016040528060025481526020018381526020013373ffffffffffffffffffffffffffffffffffffffff1681526020016000815260200160008152506001600060025481526020019081526020016000206000820151816000015560208201518160010190805190602001906143e6929190614a89565b5060408201518160020160006101000a81548173ffffffffffffffffffffffffffffffffffffffff021916908373ffffffffffffffffffffffffffffffffffffffff160217905550606082015181600301556080820151816004015590505060008090505b600254811161457d578360016000838152602001908152602001600020600001541415614570576001600082815260200190815260200160002060030160008154809291906001019190505550606460148302816144a557fe5b046001600083815260200190815260200160002060040160008282540192505081905550604051806040016040528060025481526020013373ffffffffffffffffffffffffffffffffffffffff16815250600080838152602001908152602001600020600060025481526020019081526020016000206000820151816000015560208201518160010160006101000a81548173ffffffffffffffffffffffffffffffffffffffff021916908373ffffffffffffffffffffffffffffffffffffffff1602179055509050505b808060010191505061444b565b50505050565b60036020528060005260406000206000915090508060000154908060010160009054906101000a900473ffffffffffffffffffffffffffffffffffffffff16908060020154908060030154908060040154905085565b60018114156145f0576145eb82614036565b614634565b60028114156146075761460282613284565b614633565b600381141561461e5761461982613af5565b614632565b60048114156146315761463082613a54565b5b5b5b5b5050565b601b5481565b60185481565b60066020528060005260406000206000915054906101000a900460ff1681565b601d5481565b60008090505b600254811161489f573373ffffffffffffffffffffffffffffffffffffffff166001600083815260200190815260200160002060020160009054906101000a900473ffffffffffffffffffffffffffffffffffffffff1673ffffffffffffffffffffffffffffffffffffffff161415614892576000600160008381526020019081526020016000206004015490506701cdda4faccd000081101561475f576040517f08c379a0000000000000000000000000000000000000000000000000000000008152600401808060200182810382526030815260200180614bf86030913960400191505060405180910390fd5b6004600081548092919060010191905055506040518060a0016040528060045481526020013373ffffffffffffffffffffffffffffffffffffffff1681526020016000815260200160008152602001838152506003600060045481526020019081526020016000206000820151816000015560208201518160010160006101000a81548173ffffffffffffffffffffffffffffffffffffffff021916908373ffffffffffffffffffffffffffffffffffffffff1602179055506040820151816002015560608201518160030155608082015181600401559050506701cdda4faccd0000811115614873576701cdda4faccd000081036001600084815260200190815260200160002060040181905550614890565b600060016000848152602001908152602001600020600401819055505b505b8080600101915050614670565b50565b60106020528060005260406000206000915090508060000154908060010160009054906101000a900473ffffffffffffffffffffffffffffffffffffffff16908060020154908060030154908060040154905085565b60056020528060005260406000206000915054906101000a900460ff1681565b6000602052816000526040600020602052806000526040600020600091509150508060000154908060010160009054906101000a900473ffffffffffffffffffffffffffffffffffffffff16905082565b60155481565b60045481565b6001602052806000526040600020600091509050806000015490806001018054600181600116156101000203166002900480601f016020809104026020016040519081016040528092919081815260200182805460018160011615610100020316600290048015614a275780601f106149fc57610100808354040283529160200191614a27565b820191906000526020600020905b815481529060010190602001808311614a0a57829003601f168201915b5050505050908060020160009054906101000a900473ffffffffffffffffffffffffffffffffffffffff16908060030154908060040154905085565b60115481565b600b6020528060005260406000206000915054906101000a900460ff1681565b828054600181600116156101000203166002900490600052602060002090601f016020900481019282601f10614aca57805160ff1916838001178555614af8565b82800160010185558215614af8579182015b82811115614af7578251825591602001919060010190614adc565b5b509050614b059190614b09565b5090565b614b2b91905b80821115614b27576000816000905550600101614b0f565b5090565b9056fe796f7520646f206e6f74206861766520616e7920726566657272657220746f2073656c6c596f75206f6e6c79206e656564203520657468657220746f20656e7465722074686973206175746f706f6f6c596f75206861766520616c726561647920636f6d706c657465642074686973206175746f706f6f6c596f75206861766520616c726561647920706c61636564206120564950206f6e207468697320626f78696e73756666696369656e742066756e6420696e2074686520636f6e74726163742077616c6c6574796f7520646f206e6f74206861766520656e6f75676820726566657272657220746f20616374697661746520626f7831a265627a7a72315820c700693365343cd904ee7e0039ebe1ecfb4f8f7c5bb7ad028b75f682cb1ff1ce64736f6c63430005100032",
  "source": "// SPDX-License-Identifier: GPL-3.0\r\npragma solidity 0.5.16;\r\n\r\ncontract Autopool {\r\n\r\n     struct Downliners {\r\n        uint256 id;\r\n        address payable addr;\r\n    } \r\n\r\n    //referrer mapping\r\n    mapping(uint256 => mapping(uint256 => Downliners)) public referred_person;\r\n\r\n\r\n    struct Allmembers {\r\n        uint256 id;\r\n        string name;\r\n        address payable addr;\r\n        uint256 direct_downliners;\r\n        uint256 referrer_balance;\r\n    }\r\n\r\n    mapping(uint256 => Allmembers) public allmembers;\r\n    uint256 public allmemberCount;\r\n\r\n    struct Boxusers {\r\n        uint256 id;\r\n        address payable addr;\r\n        uint256 bal;\r\n        uint paid;\r\n        uint256 f_key;\r\n    }\r\n\r\n    mapping(uint256 => Boxusers) public boxUsers;\r\n    uint256 public idCount;\r\n\r\n    //define a mapping to store all the people who have completed box1\r\n    mapping(address => bool) public box1_completed;\r\n    mapping(address => bool) public box2_completed;\r\n    mapping(address => bool) public box3_completed;\r\n    mapping(address => bool) public box4_completed;\r\n    mapping(address => bool) public box5_completed;\r\n    mapping(address => bool) public box6_completed;\r\n    mapping(address => bool) public box7_completed;\r\n\r\n    struct Box2_users {\r\n        uint256 id;\r\n        address payable addr;\r\n        uint256 bal;\r\n        uint paid;\r\n        uint256 f_key;\r\n    }\r\n\r\n    mapping(uint256 => Box2_users) public box2_users;\r\n    uint256 public idCount2;\r\n\r\n    struct Box3_users {\r\n        uint256 id;\r\n        address payable addr;\r\n        uint256 bal;\r\n        uint paid;\r\n        uint256 f_key;\r\n    }\r\n    mapping(uint256 => Box3_users) public box3_users;\r\n    uint256 public idCount3;\r\n\r\n    struct Box4_users {\r\n        uint256 id;\r\n        address payable addr;\r\n        uint256 bal;\r\n        uint paid;\r\n        uint256 f_key;\r\n    }\r\n    mapping(uint256 => Box4_users) public box4_users;\r\n    uint256 public idCount4;\r\n\r\n    struct Box5_users {\r\n        uint256 id;\r\n        address payable addr;\r\n        uint256 bal;\r\n        uint paid;\r\n        uint256 f_key;\r\n    }\r\n\r\n    mapping(uint256 => Box5_users) public box5_users;\r\n    uint256 public idCount5;\r\n\r\n    struct Box6_users {\r\n        uint256 id;\r\n        address payable addr;\r\n        uint256 bal;\r\n        uint paid;\r\n        uint256 f_key;\r\n    }\r\n    mapping(uint256 => Box6_users) public box6_users;\r\n    uint256 public idCount6;\r\n\r\n    struct Box7_users {\r\n        uint256 id;\r\n        address payable addr;\r\n        uint256 bal;\r\n        uint paid;\r\n        uint256 f_key;\r\n    }\r\n    mapping(uint256 => Box7_users) public box7_users;\r\n    uint256 public idCount7;\r\n    \r\n    ////////VIP//////////\r\n    \r\n    uint256 public vipId_box1;\r\n    uint256 public vipId_box2;\r\n    uint256 public vipId_box3;\r\n    uint256 public vipId_box4;\r\n    uint256 public vipId_box5;\r\n    uint256 public vipId_box6;\r\n    uint256 public vipId_box7; \r\n\r\n    constructor () public {\r\n        allmemberCount++;\r\n        allmembers[allmemberCount] = Allmembers(allmemberCount, 'Nation Wide', msg.sender, 0, 0);\r\n    }\r\n\r\n    function sellRef() public {\r\n        for(uint i=0; i<=allmemberCount; i++){\r\n            if(allmembers[i].addr == msg.sender){\r\n                uint _grand = allmembers[i].referrer_balance;\r\n                require(_grand>0, 'you do not have any referrer to sell');\r\n                require(address(this).balance >= _grand, 'insufficient fund in the contract wallet');\r\n                (msg.sender).transfer(_grand);\r\n                allmembers[i].referrer_balance=0;\r\n            }\r\n        }\r\n    }\r\n    \r\n    function sub()public{\r\n        for(uint i=0; i<=allmemberCount; i++){\r\n            if(allmembers[i].addr == msg.sender){\r\n                uint _grand = allmembers[i].referrer_balance;\r\n                require(_grand>=130000000000000000, 'you do not have enough referrer to activate box1');\r\n                idCount++;\r\n                boxUsers[idCount] = Boxusers(idCount, msg.sender, 0, 0, i);\r\n                if(_grand>130000000000000000){\r\n                    allmembers[i].referrer_balance = _grand - 130000000000000000;\r\n                }else{\r\n                    allmembers[i].referrer_balance = 0;\r\n                }\r\n            }\r\n        }\r\n    }\r\n\r\n\r\n    //register a new member\r\n    function register(uint256 _referer, string memory _name) public payable {\r\n        uint256 _amount = 50000000000000000;\r\n        //make sure that user pays exactly 0.1 ether\r\n        require(msg.value == _amount, 'You only need 5 ether to enter this autopool');\r\n        \r\n        //check if user has already registered\r\n        for(uint i=0; i<=allmemberCount; i++){\r\n            require(allmembers[i].addr != msg.sender, 'You are already registered');\r\n        }\r\n\r\n        //register this member\r\n        allmemberCount++;\r\n        allmembers[allmemberCount] = Allmembers(allmemberCount, _name, msg.sender, 0, 0);\r\n\r\n        //store referrer information\r\n        for(uint256 i=0; i<=allmemberCount; i++){\r\n            if(allmembers[i].id == _referer){\r\n                    allmembers[i].direct_downliners++;\r\n                    allmembers[i].referrer_balance += _amount * 20/100;\r\n                    referred_person[i][allmemberCount] = Downliners(allmemberCount, msg.sender);\r\n            }\r\n\r\n\r\n        }\r\n\r\n    }\r\n    function custom_vip (uint _id, uint box) public {\r\n        if(box==1){\r\n            vip_match(_id); \r\n        }else if(box==2){\r\n            vip_match2(_id);\r\n        }else if(box==3){\r\n            vip_match3(_id);\r\n        }else if(box==4){\r\n            vip_match4(_id);\r\n        }\r\n    }\r\n    function vip_match (uint256 _id) public {\r\n        require(vipId_box1 == 0, 'You have already placed a VIP on this box');\r\n        //check if user has already registered on this box\r\n        for(uint i=0; i<=idCount; i++){\r\n            if(boxUsers[i].f_key == _id){\r\n                vipId_box1 = _id; \r\n            }\r\n        }\r\n    }\r\n    function vip_match2 (uint256 _id) public {\r\n        require(vipId_box2 == 0, 'You have already placed a VIP on this box');\r\n        //check if user has already registered on this box\r\n        for(uint i=0; i<=idCount2; i++){\r\n            if(box2_users[i].f_key == _id){\r\n                vipId_box2 = _id;\r\n            }\r\n        }\r\n    }\r\n    function vip_match3 (uint256 _id) public {\r\n        require(vipId_box3 == 0, 'You have already placed a VIP on this box');\r\n        //check if user has already registered on this box\r\n        for(uint i=0; i<=idCount3; i++){\r\n            if(box3_users[i].f_key == _id){\r\n                vipId_box3 = _id;\r\n            }\r\n        }\r\n    }\r\n    function vip_match4 (uint256 _id) public {\r\n        require(vipId_box4 == 0, 'You have already placed a VIP on this box');\r\n        //check if user has already registered on this box\r\n        for(uint i=0; i<=idCount4; i++){\r\n            if(box4_users[i].f_key == _id){\r\n                vipId_box4 = _id;\r\n            }\r\n        }\r\n    }\r\n\r\n    function Box1_register() public payable {\r\n        uint256 _amount = 130000000000000000;\r\n        //make sure that user pays exactly 0.1 ether\r\n        require(msg.value == _amount, 'You only need 5 ether to enter this autopool');\r\n\r\n       // check if user has already completd this autopool\r\n       require(box1_completed[msg.sender] == false, 'You have already completed this autopool');\r\n\r\n        //increase user id\r\n        idCount++;\r\n\r\n      for(uint256 b=0; b<=allmemberCount; b++){\r\n          if(allmembers[b].addr == msg.sender){\r\n              //register this member\r\n             boxUsers[idCount] = Boxusers(idCount, msg.sender, 0, 0, b);\r\n\r\n          if(vipId_box1 > 0){\r\n              \r\n              if(boxUsers[vipId_box1].paid == 2){\r\n                  address payable _recipient_addr = boxUsers[vipId_box1].addr;\r\n                _recipient_addr.transfer(_amount); \r\n                \r\n              }\r\n               //amount of ether receeived by user\r\n              boxUsers[vipId_box1].bal += msg.value;\r\n\r\n              //increase that paid to this member\r\n              boxUsers[vipId_box1].paid++;\r\n\r\n              if(boxUsers[vipId_box1].paid == 3){\r\n                  \r\n             //OPEN NEXT BOX \r\n             Box2_register(boxUsers[vipId_box1].addr);\r\n\r\n             //shows that recipient has completed this autopool\r\n             box1_completed[boxUsers[vipId_box1].addr] = true;\r\n\r\n             //delete this user from this autopool\r\n             delete boxUsers[vipId_box1];\r\n             \r\n             vipId_box1 = 0;\r\n              }\r\n              \r\n\r\n          }else{\r\n              \r\n////////////////////////////////////////////////////////////////\r\n\r\n//send ether to the next member in the queue\r\n      for(uint i=0; i<=idCount; i++){\r\n          if(boxUsers[i].id > 0){\r\n              address payable _recipient;\r\n              _recipient = boxUsers[i].addr;\r\n              \r\n              if(boxUsers[i].paid == 2){\r\n                   _recipient.transfer(_amount); \r\n              }\r\n              //amount of ether receeived by user\r\n              boxUsers[i].bal += msg.value;\r\n              //increase that paid to this member\r\n              boxUsers[i].paid++;\r\n\r\n              if(boxUsers[i].paid == 3){\r\n             //remove this member from this autopool and add him to the next\r\n\r\n             Box2_register(boxUsers[i].addr);\r\n\r\n\r\n             //shows that recipient has completed this autopool\r\n             box1_completed[boxUsers[i].addr] = true;\r\n\r\n             //delete this user from this autopool\r\n             delete boxUsers[i];\r\n              }\r\n\r\n\r\n              break;\r\n\r\n          }\r\n      }\r\n\r\n//////////////////////////////////////////////////////////////\r\n}\r\n\r\n   }\r\n}\r\n\r\n\r\n\r\n}\r\n\r\n////////////////////////// BOX 2 STARTS HERE /////////////////////////////\r\nfunction Box2_register(address payable _wallet) public {\r\n        uint256 _amount = 260000000000000000;\r\n\r\n       // check if user has already completd this autopool\r\n       require(box2_completed[_wallet] == false, 'You have already completed this autopool');\r\n\r\n        //increase user id\r\n        idCount2++;\r\n\r\n      for(uint256 b=0; b<=allmemberCount; b++){\r\n          if(allmembers[b].addr == _wallet){\r\n              //register this member\r\n             box2_users[idCount2] = Box2_users(idCount2, _wallet, 0, 0, b);\r\n\r\n        if(vipId_box2 > 0){\r\n              \r\n              if(box2_users[vipId_box2].paid == 2){\r\n                  address payable _recipient_addr = box2_users[vipId_box2].addr;\r\n                _recipient_addr.transfer(_amount); \r\n                \r\n              }\r\n               //amount of ether receeived by user\r\n              box2_users[vipId_box2].bal += _amount;\r\n\r\n              //increase that paid to this member\r\n              box2_users[vipId_box2].paid++;\r\n\r\n              if(box2_users[vipId_box2].paid == 3){\r\n                  \r\n             //OPEN NEXT BOX \r\n             Box3_register(box2_users[vipId_box2].addr);\r\n\r\n             //shows that recipient has completed this autopool\r\n             box2_completed[box2_users[vipId_box2].addr] = true;\r\n\r\n             //delete this user from this autopool\r\n             delete box2_users[vipId_box2];\r\n             \r\n             vipId_box2 = 0;\r\n              }\r\n              \r\n\r\n          }else{\r\n               //send ether to the next member in the queue\r\n      for(uint i=0; i<=idCount2; i++){\r\n          if(box2_users[i].id > 0){\r\n\r\n              address payable _recipient;\r\n              _recipient = box2_users[i].addr;\r\n              \r\n              if(box2_users[i].paid == 2){\r\n                  _recipient.transfer(_amount);\r\n              }\r\n              //amount of ether receeived by user\r\n              box2_users[i].bal += _amount;\r\n\r\n              //increase that paid to this member\r\n              box2_users[i].paid++;\r\n\r\n              if(box2_users[i].paid == 3){\r\n\r\n             //remove this member from this autopool and add him to the next\r\n\r\n             Box3_register(box2_users[i].addr);\r\n\r\n             //shows that recipient has completed this autopool\r\n             box2_completed[box2_users[i].addr] = true;\r\n\r\n             //delete this user from this autopool\r\n             delete box2_users[i];\r\n              }\r\n\r\n\r\n              break;\r\n\r\n          }\r\n      }\r\n          }\r\n\r\n   }\r\n}\r\n\r\n\r\n}\r\n\r\n////////////////////////// BOX 3 STARTS HERE /////////////////////////////\r\nfunction Box3_register(address payable _wallet) public {\r\n        uint256 _amount = 520000000000000000;\r\n\r\n       // check if user has already completd this autopool\r\n       require(box3_completed[_wallet] == false, 'You have already completed this autopool');\r\n\r\n        //increase user id\r\n        idCount3++;\r\n\r\n      for(uint256 b=0; b<=allmemberCount; b++){\r\n          if(allmembers[b].addr == _wallet){\r\n              //register this member\r\n             box3_users[idCount3] = Box3_users(idCount3, _wallet, 0, 0, b);\r\n        if(vipId_box3 > 0){\r\n              \r\n              if(box3_users[vipId_box3].paid == 2){\r\n                  address payable _recipient_addr = box3_users[vipId_box3].addr;\r\n                _recipient_addr.transfer(_amount); \r\n              }\r\n               //amount of ether receeived by user\r\n              box3_users[vipId_box3].bal += _amount;\r\n\r\n              //increase that paid to this member\r\n              box3_users[vipId_box3].paid++;\r\n\r\n              if(box3_users[vipId_box3].paid == 3){\r\n                  \r\n             //OPEN NEXT BOX \r\n             Box4_register(box3_users[vipId_box3].addr);\r\n\r\n             //shows that recipient has completed this autopool\r\n             box3_completed[box3_users[vipId_box3].addr] = true;\r\n\r\n             //delete this user from this autopool\r\n             delete box3_users[vipId_box3];\r\n             \r\n             vipId_box3 = 0;\r\n              }\r\n              \r\n          }else{\r\n              //send ether to the next member in the queue\r\n      for(uint i=0; i<=idCount3; i++){\r\n          if(box3_users[i].id > 0){\r\n\r\n              address payable _recipient;\r\n              _recipient = box3_users[i].addr;\r\n             \r\n              if(box3_users[i].paid == 2){\r\n                   _recipient.transfer(_amount);\r\n              }\r\n              //amount of ether receeived by user\r\n              box3_users[i].bal += _amount;\r\n\r\n              //increase that paid to this member\r\n              box3_users[i].paid++;\r\n\r\n              if(box3_users[i].paid == 3){\r\n\r\n             //remove this member from this autopool and add him to the next\r\n\r\n             Box4_register(box3_users[i].addr);\r\n\r\n             //shows that recipient has completed this autopool\r\n             box3_completed[box3_users[i].addr] = true;\r\n\r\n             //delete this user from this autopool\r\n             delete box3_users[i];\r\n              }\r\n\r\n\r\n              break;\r\n\r\n          }\r\n      }\r\n          }\r\n\r\n   }\r\n}\r\n\r\n\r\n}\r\n\r\n////////////////////////// BOX 4 STARTS HERE /////////////////////////////\r\n\r\nfunction Box4_register(address payable _wallet) public {\r\n        uint256 _amount = 1040000000000000000;\r\n\r\n       // check if user has already completd this autopool\r\n       require(box4_completed[_wallet] == false, 'You have already completed this autopool');\r\n\r\n        //increase user id\r\n        idCount4++;\r\n\r\n      for(uint256 b=0; b<=allmemberCount; b++){\r\n          if(allmembers[b].addr == _wallet){\r\n              //register this member\r\n             box4_users[idCount4] = Box4_users(idCount4, _wallet, 0, 0, b);\r\n         if(vipId_box4 > 0){\r\n              \r\n              if(box4_users[vipId_box4].paid == 2){\r\n                  address payable _recipient_addr = box4_users[vipId_box4].addr;\r\n                _recipient_addr.transfer(_amount); \r\n              }\r\n               //amount of ether receeived by user\r\n              box4_users[vipId_box4].bal += _amount;\r\n              box4_users[vipId_box4].paid++;\r\n              if(box4_users[vipId_box4].paid == 3){\r\n             //OPEN NEXT BOX \r\n             Box5_register(box4_users[vipId_box4].addr);\r\n             box4_completed[box4_users[vipId_box4].addr] = true;\r\n             delete box4_users[vipId_box4];\r\n             vipId_box4 = 0;\r\n              }\r\n              \r\n          }else{\r\n               //send ether to the next member in the queue\r\n      for(uint i=0; i<=idCount4; i++){\r\n          if(box4_users[i].id > 0){\r\n\r\n              address payable _recipient;\r\n              _recipient = box4_users[i].addr;\r\n              \r\n              if(box4_users[i].paid == 2){\r\n                  _recipient.transfer(_amount);\r\n              }\r\n              //amount of ether receeived by user\r\n              box4_users[i].bal += _amount;\r\n\r\n              //increase that paid to this member\r\n              box4_users[i].paid++;\r\n\r\n              if(box4_users[i].paid == 3){\r\n\r\n             //remove this member from this autopool and add him to the next\r\n\r\n             Box5_register(box4_users[i].addr);\r\n             //shows that recipient has completed this autopool\r\n             box4_completed[box4_users[i].addr] = true;\r\n\r\n             //delete this user from this autopool\r\n             delete box4_users[i];\r\n              }\r\n\r\n\r\n              break;\r\n\r\n          }\r\n      }\r\n          }\r\n\r\n   }\r\n}\r\n\r\n\r\n}\r\n\r\n////////////////////////// BOX 5 STARTS HERE /////////////////////////////\r\n\r\nfunction Box5_register(address payable _wallet) public payable {\r\n        uint256 _amount = 2080000000000000000;\r\n\r\n       // check if user has already completd this autopool\r\n       require(box5_completed[_wallet] == false, 'You have already completed this autopool');\r\n\r\n        //increase user id\r\n        idCount5++;\r\n\r\n      for(uint256 b=0; b<=allmemberCount; b++){\r\n          if(allmembers[b].addr == _wallet){\r\n              //register this member\r\n             box5_users[idCount5] = Box5_users(idCount5, _wallet, 0, 0, b);\r\n\r\n\r\n        //send ether to the next member in the queue\r\n      for(uint i=0; i<=idCount5; i++){\r\n          if(box5_users[i].id > 0){\r\n\r\n              address payable _recipient;\r\n              _recipient = box5_users[i].addr;\r\n             \r\n              if(box5_users[i].paid == 2){\r\n                   _recipient.transfer(_amount);\r\n              }\r\n              //amount of ether receeived by user\r\n              box5_users[i].bal += _amount;\r\n\r\n              //increase that paid to this member\r\n              box5_users[i].paid++;\r\n\r\n              if(box5_users[i].paid == 3){\r\n\r\n             //remove this member from this autopool and add him to the next\r\n\r\n             Box6_register(box5_users[i].addr);\r\n\r\n             //shows that recipient has completed this autopool\r\n             box5_completed[box5_users[i].addr] = true;\r\n\r\n             //delete this user from this autopool\r\n             delete box5_users[i];\r\n              }\r\n\r\n\r\n              break;\r\n\r\n          }\r\n      }\r\n\r\n\r\n   }\r\n}\r\n\r\n\r\n\r\n}\r\n\r\n////////////////////////// BOX 6 STARTS HERE /////////////////////////////\r\n\r\nfunction Box6_register(address payable _wallet) public payable {\r\n        uint256 _amount = 4160000000000000000;\r\n\r\n       // check if user has already completd this autopool\r\n       require(box6_completed[_wallet] == false, 'You have already completed this autopool');\r\n\r\n        //increase user id\r\n        idCount6++;\r\n\r\n      for(uint256 b=0; b<=allmemberCount; b++){\r\n          if(allmembers[b].addr == _wallet){\r\n              //register this member\r\n             box6_users[idCount6] = Box6_users(idCount6, _wallet, 0, 0, b);\r\n\r\n\r\n        //send ether to the next member in the queue\r\n      for(uint i=0; i<=idCount6; i++){\r\n          if(box6_users[i].id > 0){\r\n\r\n              address payable _recipient;\r\n              _recipient = box6_users[i].addr;\r\n             \r\n              if(box6_users[i].paid == 2){\r\n                  _recipient.transfer(_amount);\r\n              }\r\n              //amount of ether receeived by user\r\n              box6_users[i].bal += _amount;\r\n\r\n              //increase that paid to this member\r\n              box6_users[i].paid++;\r\n\r\n              if(box6_users[i].paid == 3){\r\n\r\n             //remove this member from this autopool and add him to the next\r\n\r\n             Box7_register(box6_users[i].addr);\r\n\r\n             //shows that recipient has completed this autopool\r\n             box6_completed[box6_users[i].addr] = true;\r\n\r\n             //delete this user from this autopool\r\n             delete box6_users[i];\r\n              }\r\n\r\n\r\n              break;\r\n\r\n          }\r\n      }\r\n\r\n\r\n   }\r\n}\r\n\r\n\r\n\r\n        //box_users.push();\r\n}\r\n\r\n////////////////////////// BOX 7 STARTS HERE /////////////////////////////\r\n\r\nfunction Box7_register(address payable _wallet) public payable {\r\n        uint256 _amount = 8320000000000000000;\r\n\r\n       // check if user has already completd this autopool\r\n       require(box7_completed[_wallet] == false, 'You have already completed this autopool');\r\n\r\n        //increase user id\r\n        idCount7++;\r\n\r\n      for(uint256 b=0; b<=allmemberCount; b++){\r\n          if(allmembers[b].addr == _wallet){\r\n              //register this member\r\n             box7_users[idCount7] = Box7_users(idCount7, _wallet, 0, 0, b);\r\n\r\n\r\n        //send ether to the next member in the queue\r\n      for(uint i=0; i<=idCount7; i++){\r\n          if(box7_users[i].id > 0){\r\n\r\n              address payable _recipient;\r\n              _recipient = box7_users[i].addr;\r\n             \r\n              if(box7_users[i].paid == 2){\r\n                  _recipient.transfer(_amount);\r\n              }\r\n              //amount of ether receeived by user\r\n              box7_users[i].bal += _amount;\r\n\r\n              //increase that paid to this member\r\n              box7_users[i].paid++;\r\n\r\n              if(box7_users[i].paid == 3){\r\n\r\n             //remove this member from this autopool and add him to the next\r\n\r\n\r\n             //shows that recipient has completed this autopool\r\n             box7_completed[box7_users[i].addr] = true;\r\n\r\n             //delete this user from this autopool\r\n             delete box7_users[i];\r\n              }\r\n\r\n\r\n              break;\r\n\r\n          }\r\n      }\r\n\r\n\r\n   }\r\n}\r\n\r\n\r\n\r\n        //box_users.push();\r\n}\r\n\r\n\r\n   function addressBal() public view returns(uint256) {\r\n       return address(this).balance;\r\n   }\r\n}\r\n",
  "sourcePath": "C:/Users/Acer Computer/Desktop/solidity_tutorial/autopool/contracts/Autopool.sol",
  "compiler": {
    "name": "solc",
    "version": "0.5.16+commit.9c3226ce.Emscripten.clang"
  },
  "schemaVersion": "3.2.3",
  "updatedAt": "2021-02-07T05:50:12.333Z",
  "networkType": "ethereum",
  "devdoc": {
    "methods": {}
  },
  "userdoc": {
    "methods": {
      "Box2_register(address)": {
        "notice": "/////////////////////// BOX 2 STARTS HERE /////////////////////////////"
      },
      "Box3_register(address)": {
        "notice": "/////////////////////// BOX 3 STARTS HERE /////////////////////////////"
      },
      "Box4_register(address)": {
        "notice": "/////////////////////// BOX 4 STARTS HERE /////////////////////////////"
      },
      "Box5_register(address)": {
        "notice": "/////////////////////// BOX 5 STARTS HERE /////////////////////////////"
      },
      "Box6_register(address)": {
        "notice": "/////////////////////// BOX 6 STARTS HERE /////////////////////////////"
      },
      "Box7_register(address)": {
        "notice": "/////////////////////// BOX 7 STARTS HERE /////////////////////////////"
      }
    }
  }
}